:020000040800F2
:100000007003002095010008990100089B01000879
:100010009D0100089F010008A101000800000000E8
:10002000000000000000000000000000A301000824
:10003000A501000800000000A7010008A9010008B0
:100040001B0E0008AB010008AB010008AB01000863
:10005000AB010008AB0100082F100008AB0100083D
:10006000AB010008AB010008AB010008AB010008C0
:10007000AB010008AB010008AB010008AB010008B0
:10008000AB010008AB010008AB010008AB010008A0
:10009000AB010008AB010008AB010008AB01000890
:1000A000AB010008AB010008AB010008AB01000880
:1000B000AB010008750E0008AB010008AB01000899
:1000C000AB010008AB010008AB010008AB01000860
:1000D000AB010008790A0008AB010008AB01000879
:1000E000AB010008AB010008AB01000800F002F80A
:1000F00000F041F80AA090E8000C82448344AAF181
:100100000107DA4501D100F036F8AFF2090EBAE87E
:100110000F0013F0010F18BFFB1A43F0010318473B
:10012000889A0000A89A0000103A24BF78C878C1C5
:10013000FAD8520724BF30C830C144BF04680C60ED
:10014000704700000023002400250026103A28BF35
:1001500078C1FBD8520728BF30C148BF0B60704739
:10016000642906F0A986002070471FB5AFF3008010
:100170001FBD10B510BD07F00FF81146FFF7F5FFD2
:1001800000F042F807F02DF8FFF7F3FF00F066FCEF
:1001900030BF000008480047FEE7FEE7FEE7FEE745
:1001A000FEE7FEE7FEE7FEE7FEE7FEE70348044959
:1001B000024A044B70470000ED0000087001002067
:1001C000700300207001002010B500216B2006F0A4
:1001D00075FB0721192006F071FB06211A2006F095
:1001E0006DFB18211B2006F069FB04211C2006F082
:1001F00065FB01211A2006F061FB05211D2006F098
:100200005DFB06F0EFFB10BD2DE9F04FA3B000241D
:10021000002500BF002021900B90092000F0C4FBB6
:10022000482000F05BFA4FF49641482000F05FFC54
:1002300000F0DEFC00F01CFD06F0B0FAFFF7C4FF92
:1002400010216A2006F03AFB0023FA4A19464FF0C3
:100250007E5000F0EBFF00BF09E012220A211820B7
:1002600006F03CFC0A2000F050FA681CC5B2142DC0
:10027000F3DB30E2BB2006F03AFB0646BC2006F07A
:1002800036FB074607EB062000B22090209809F0C5
:10029000F5F8834608F0B8FECDE90801E6A00CC8E1
:1002A000089807F0D9FFCDE90601E5A00CC806982B
:1002B00008F06EFACDE9040107F030FE1A90BD2077
:1002C00006F015FB8046BE2006F011FB814609EBC7
:1002D000082000B21F901F9809F0D0F8834608F05C
:1002E00093FECDE90801D4A00CC8089807F0B4FF2C
:1002F000CDE90601D2A00CC8069808F049FACDE96C
:10030000040107F00BFE1990BF2006F0F0FA8246B8
:10031000C02006F0ECFA2290229840EA0A2000B2AF
:100320001E901E9809F0AAF8834608F06DFECDE9EC
:100330000801C1A00CC8089807F08EFFCDE906019E
:10034000BFA00CC8069808F023FACDE9040107F015
:10035000E5FD1890C32006F0CAFA0646C42006F050
:10036000C6FA074607EB062000B21D90A4211D988F
:1003700090FBF1F000B21D901D98002801DB0146B2
:1003800000E04142022901DA00201D901D9809F089
:1003900075F8AD49039009F0BFF8834608F034FEC4
:1003A000CDE90801A9A00CC8089808F0F1F9CDE939
:1003B0000601A8A00CC8069807F04EFFCDE904017D
:1003C00007F0ACFD1790C52006F091FA8046C620D4
:1003D00006F08DFA814609EB082000B21C90A4219A
:1003E0001C9890FBF1F000B21C901C98002801DBD7
:1003F000014600E04142022901DA00201C901C98CD
:1004000009F03CF89049039009F086F8834608F01B
:10041000FBFDCDE908018DA00CC8089808F0B8F9DB
:10042000CDE906018BA00CC8069807F015FFCDE9B1
:10043000040107F073FD1690C72006F058FA8246B3
:10044000C82006F054FA2290229800EB0A2000B24D
:100450001B90A4211B9890FBF1F000B21B901B98FD
:10046000002801DB014600E04142022901DA0020B8
:100470001B901B9809F002F87349039009F04CF89F
:10048000834608F0C1FDCDE9080170A00CC80898AA
:1004900008F07EF9CDE906016EA00CC8069807F0B9
:1004A000DBFECDE9040107F039FD1590022237216A
:1004B000D02006F013FB12220A21182006F00EFBB2
:1004C0000321182006F0BFFA07460421182006F081
:1004D000BAFA064607EB062000B21D900521182047
:1004E00006F0B1FA81460621182006F0ACFA8046E3
:1004F00009EB082000B21C900721182006F0A3FA8F
:1005000022900821182006F09EFA8246229800EBDD
:100510000A2000B21B905148008800204FF0804113
:10052000A1F800044D48243000884D49088000F0AF
:10053000A1FC4C49088047214FF47A7000F0B8FCC8
:100540004748008808F0B3FF8346474908F010FE8B
:100550000E904448008808F0AAFF44490A9008F029
:1005600007FE83460E9908F077FD0E904FF080410C
:100570000E9808F0FDFD0E903D48007810F0800FB9
:1005800023D03B48007800F03F000C900C980228E4
:1005900018D1002405E03748005D0BA90855601C00
:1005A00084B20C988442F6DB9DF82C00432809D1D4
:1005B0009DF82D00A12803D101202F49087000E0EB
:1005C00000BF00BF00202A490870179814901698A1
:1005D00013901598129000211A9808F0BBFE02D0D3
:1005E0004FF0010B01E04FF0000B0021199808F0CB
:1005F000B1FE01D0012000E000204BEA000B0021F9
:10060000189808F0A7FE01D0012000E000205BEA66
:10061000000B5AD01D9808B1012000E000201C9961
:1006200009B1012100E0002108431B9909B1012112
:1006300025E023E0CDCC1C412D431CEBE236FA3FF4
:10064000581CCEFC6A0E503F000020416E861BF005
:10065000F9210940000000000080664000040040CD
:1006600004000020060000200024744900007A44A1
:100670000C0000208C0000200D0000200021084309
:1006800023D01D9808F0FAFE11901C9808F0F6FE91
:1006900010901B9808F0F2FE0F90219BDDE90F20CF
:1006A000119907AD0DC506910B4803780021DDE9CE
:1006B0000D2002AD0FC5DDE91823CDE900321A9BEC
:1006C000DDE91221149800F0C7FF002002490870EC
:1006D00000BF00BF00BFCDE50D0000204FF0E021BE
:1006E000096921F004014FF0E02211610146C217AF
:1006F00000EB5272D2101F4B1A70194609784FF452
:100700007A7251439A1C118070471A4A921C1288BF
:1007100042434FF0E0235A6100229A6101221A619C
:1007200000BF4FF0E022116911F0010F02D011F467
:10073000803FF6D000224FF0E0231A619A617047A3
:100740000C4A127842434FF0E0235A6100229A612A
:1007500001221A6100BF4FF0E022116911F0010F70
:1007600002D011F4803FF6D000224FF0E0231A614E
:100770009A61704708000020AC4A0A400243AC4B23
:100780001A607047072323EA00021202A84B1B1DC0
:1007900019684FF6FF031940A64B194311434FF058
:1007A000E023C3F80C1D70472DE9F04704460D46C1
:1007B00016461F463046F11706EB91714FEAA10924
:1007C000F11706EB91718910A6EB810101F0FF0A88
:1007D000042101EBCA0000F0FF0A3846FFF7D2FF00
:1007E000C7F1040004FA00F80F203841284040EA1D
:1007F000080808F00F08202E09DA8F480068012148
:10080000B14008434FF0E021C1F800010BE08A48F5
:10081000001D0168A6F120020120904001434FF025
:10082000E020C0F80411854850F8290008FA0AF1C0
:100830000143824840F82910BDE8F08770B50D46A5
:10084000CE1701EB9676B310CE1701EB9676B61065
:10085000A1EB8606B606340E794DAD6945F001056B
:10086000774EB5614FEAB63555F823600F25A540A0
:10087000AE43744D45F8236055F8235000FA04F652
:100880003543704E46F823506F4D2E6801258D403C
:100890002E436C4D083DC5F8006412F0010F09D0DD
:1008A000694D0C352E6801258D402E43654D083D60
:1008B000C5F80C6412F0020F09D0634D08352E689C
:1008C00001258D402E435F4D083DC5F8086470BD7D
:1008D00000B500205A490861C86014204861002012
:1008E0008861C8610846006840F001000860084659
:1008F00040685649084052494860084600685449D3
:1009000008404F4908600846006820F480200860CD
:100910000846406820F4FE004860002088600021FE
:100920004FF00060FFF728FF00BD10B540480830C9
:10093000006840F004004FF0E021C1F8100D40487D
:10094000C06940F080503E49C8614248406840F468
:100950008070404948600846006840F00400086024
:100960000846006840F002000860FFF711FC10BD67
:100970003048001D2E49091D086070470146084691
:1009800049062F4A926942F001022D4B9A612D4A85
:10099000083A526822F0E0622A4B083B5A601A4635
:1009A00052680A435A60704730B504460025FFF785
:1009B0008FFF2348006840F480302149086000BF61
:1009C0001F480068400CFBD04FF480601C49486011
:1009D000A01EC4B20846406840EA84404860084609
:1009E000406840F4803048601B48006840F03200A6
:1009F000194908601248006840F08070104908608A
:100A000000BF0F480068400EFBD00D48406840F022
:100A100002000B49486005E009484068C0F38705BB
:100A200005F00305022DF7D130BD000080FFFF1F48
:100A300008ED00E00000FA0500E100E000E400E05D
:100A40000010024008000140000401400000FFF8CF
:100A5000FFFFF6FE0070004000200240014600BF8C
:100A6000704700BF5A4A128812F0400FFAD0C2B243
:100A7000574B1B1D1A8070475549098811F0200FEC
:100A800034D05349091D0988C8B25249097811F078
:100A9000800F2BD14F49097811F0400F0CD00A2854
:100AA00003D000214B4A117020E04A49097841F0F7
:100AB0008001484A117019E00D2806D1454909788E
:100AC00041F04001434A117010E04249097801F0B9
:100AD0003F01414A50543F490978491C3D4A117031
:100AE000114609783F2901DD0021117070472DE979
:100AF000F05F04460D46280108F0D9FC81463749CD
:100B000004FB01F008F0D3FC8246494608F030FBB4
:100B10000646304608F086FC87B2384608F0C7FC27
:100B20008346314608F0D8FD82464FF0834108F0F5
:100B3000F3FC814608F076FC80463F0107EB080095
:100B400087B22748806940F004002549886108463B
:100B5000806940F4804088612248006820F47F600A
:100B60002149C1F804080846D0F8040840F40B6095
:100B7000C1F804081A48C06840F480401849C860A9
:100B80000846C06820F48040C8601848A0F808787B
:100B90000F480C30008842F20C0108431349A1F8B9
:100BA0000C080846B0F80C0840F48070A1F80C0856
:100BB0000846B0F80C0840F0200005490C310880C8
:100BC0000223252203211846FFF7EEFDBDE8F09F22
:100BD000003801400C0000208C00002040420F0033
:100BE00000100240040801400000014000300140B4
:100BF0001B48806940F004001949886108468069F3
:100C000040F0200088611748006820F00F00164966
:100C1000C1F804080846D0F8040840F00300C1F801
:100C200004080846D0F80C0840F48070C1F80C089D
:100C30000E48D0F8000420F470600C49C1F800049C
:100C40000846D0F8000440F44070C1F8000408469B
:100C5000D0F80C0440F00400C1F80C047047000008
:100C60000010024004080140000001400010014053
:100C70003548806940F00400334988613348006892
:100C800020F00F003249C1F800080846D0F80008EB
:100C900040F00800C1F800082C48001D00682D49EC
:100CA00008402B49C1F804082848001D00682A495B
:100CB00008432749C1F804080846D0F80C0840F456
:100CC0000050C1F80C080846D0F80C0840F4004069
:100CD000C1F80C08704710B52048007810B32048C0
:100CE000006840B11E480830006820B11C48343804
:100CF0000068012816D100201849087018480068BB
:100D000008B9012010BD16480830006808B9022053
:100D1000F8E7134834380068012813D1FFF72EFE96
:100D20000320EFE70E48006801280BD10C4808307B
:100D30000068012806D10A483438006810B901203B
:100D4000064908700020DDE700100240000801405D
:100D500000000140FFFF0F0F000080801400002002
:100D60003401214245F255523B4B1A601A465060FD
:100D700091604AF6AA221A604CF6CC421A6070477B
:100D80004AF6AA2034490860704770B504460D46FB
:100D900016463248C06940F400603049C8613049A5
:100DA000097804EA01002E4908702E48006840EADC
:100DB000C6102D49C1F8040C0846D0F8040C40F4C4
:100DC0000070C1F8040C274800684FF68071084095
:100DD0002549C1F8040C0846D0F8040C2843C1F892
:100DE000040C2048001F00681D49097841F080016B
:100DF00008431D49C1F8000C0223002203211846B4
:100E0000FFF7D2FC70BD1749091F096800F07F0287
:100E10001143154AC2F8001C704710B5114800680C
:100E200000F07F031048D0F8000C00F07F049C42D3
:100E300003DA0B480078FFF7E6FF00200949091D97
:100E400008600A48D0F8880108B9012000E00020B5
:100E50000749086010BD000000300040001002404B
:100E600015000020042C0040002000400080224299
:100E7000888122425148008810F0010F0CD0504860
:100E8000006808B9012000E000204D4908604D4885
:100E90000068401C4B4908604848008820F0010069
:100EA0004FF08041A1F8100446480068C0B2704776
:100EB00070B504460D464448C06940F002004249FE
:100EC000C8613E481C3004808804A0F82854B0F85B
:100ED0000C0440F001008904A1F80C040846B0F8A5
:100EE0000C0440F040003549091F088000203549B6
:100EF00008604FF08041A1F824040846B0F80004CF
:100F000040F001002D491039088002231D220321E1
:100F10000120FFF749FC70BD2B4AD26942F0020262
:100F2000294BDA61294A126822F00F02284BC3F8D4
:100F300004281A46D2F8042842F00402C3F8042810
:100F40001A46D2F8002822F07042C3F800281A4648
:100F5000D2F8002842F03042C3F800281A46D2F8EE
:100F60000C2842F08002C3F80C289A03A2F82C0443
:100F7000A2F82814B2F8182442F4E0429B03A3F824
:100F800018241A46B2F8182442F40062A3F8182470
:100F90001A46B2F8202442F01002084B10331A808F
:100FA000DA13D303A3F80024D203B2F8002442F0EA
:100FB0000102024B103B1A807047000010040040F1
:100FC00088812242180000200010024004080140DD
:100FD0000000014010B53048C06840F4FE702E4952
:100FE000C860FFF7A2FC10BD70B5002400250020EA
:100FF0002A4908601AE02948A038006818B1601C26
:10100000C4B2002508E0681CC5B2032D04DD012030
:1010100022490860002070BD1E20FFF776FB642C7B
:1010200004DB00201D4908600120F4E7E3E710B568
:1010300001201B490860FFF7D7FF08B1FFF7CAFF7F
:1010400010BD10B51448806940F004001249886151
:101050000846806940F0010088611248006820F06D
:101060000F001149C1F800080846D0F8000840F008
:101070000800C1F80008022200210846FFF7DEFB45
:10108000FFF7B2FF08B9FFF750FC0223062219460A
:101090001846FFF789FB10BD00100240A001214255
:1010A00014040140000801400000014002460021F4
:1010B00005E0481CC1B2C82901DD00207047564830
:1010C000008910F0020FF4D053488281002105E01E
:1010D000481CC1B2C82901DD0020EFE74E48008955
:1010E00010F0010FF4D04C488089C0B2E6E700B59B
:1010F0004A48806940F00400484988610846806990
:1011000040F48050886146480068C0F313004549A8
:10111000C1F8000842480068434908434149C1F802
:1011200000080846D0F80C0840F0E000C1F80C08B0
:1011300039480088384908800846008840F4007023
:1011400008800846008840F48070088008460088BF
:1011500040F004000880084600880880084600889F
:1011600008800846008808800846008840F038005B
:1011700008800846008808800846008840F0400043
:101180000880FF20FFF792FF00BD234909884FF632
:10119000C7721140204A118018B911460988118080
:1011A00032E0012806D11C49098841F010011A4A91
:1011B000118029E0022806D11749098841F0180159
:1011C000154A118020E0042806D11349098841F00E
:1011D0002001114A118017E0052806D10E4909881F
:1011E00041F028010C4A11800EE0062806D10A4978
:1011F000098841F03001084A118005E00649098854
:1012000041F03801044A11800349098841F0400146
:10121000014A118070470000003001400010024078
:1012200000080140000001400000B0BB2DE9F04F74
:10123000A3B004460D4616461F46304607F0E4FEAE
:10124000CDE92001284607F0DFFECDE91E01DDE9EA
:10125000202306F0DFFCCDE91C0106F05FFE81468D
:10126000F8480168204607F083FF834607F0CCFE6C
:10127000CDE9200106F074FACDE91E0181F00041AC
:10128000CDE91C0106F04AFE8246B8464FF0804187
:10129000404607F06DFF834607F0B6FECDE920011A
:1012A00006F0C2FDCDE91E014FF08041504607F027
:1012B0005FFF834607F0A8FECDE91C0106F0B4FDF0
:1012C000CDE91A014FF08041484607F051FF8346AF
:1012D00007F09AFECDE9180106F0A6FDCDE916014A
:1012E000DDE91A2307F054FACDE91401DDE91E23E4
:1012F00007F04EFACDE912014FF08041404607F069
:1013000037FF834607F080FECDE9100106F03EFD71
:10131000CDE90E014FF08041504607F029FF83468A
:1013200007F072FECDE90C0106F030FDCDE90A01AF
:101330004FF08041484607F01BFF834607F064FEEC
:10134000CDE9080106F022FDCDE90601DDE90A2319
:1013500007F01EFACDE90401DDE90E2307F018FAC3
:10136000CDE90201DDE9122306F022FECDE90001FC
:1013700006F0D4FDB44908604FF08041404607F0C4
:10138000F7FE834607F040FECDE9200106F04CFD54
:10139000CDE91E014FF08041504607F0E9FE83463B
:1013A00007F032FECDE91C0106F03EFDCDE91A0141
:1013B0004FF08041484607F0DBFE834607F024FEED
:1013C000CDE9180106F0E2FCCDE91601DDE91A23AA
:1013D00007F0DEF9CDE91401DDE91E2307F0D8F9A5
:1013E000CDE912014FF08041404607F0C1FE83462F
:1013F00007F00AFECDE9100106F0C8FCCDE90E01A8
:101400004FF08041504607F0B3FE834607F0FCFDE5
:10141000CDE90C0106F0BAFCCDE90A014FF080419C
:10142000484607F0A5FE834607F0EEFDCDE908012A
:1014300006F0FAFCCDE90601DDE90A2307F0A8F978
:10144000CDE90401DDE90E2307F0A2F9CDE902019F
:10145000DDE9122307F03EFCCDE9000106F05EFD58
:101460007A4908604FF08041404607F081FE83468C
:1014700007F0CAFDCDE9200106F0D6FCCDE91E013A
:101480004FF08041504607F073FE834607F0BCFDE5
:10149000CDE91C0106F07AFCCDE91A014FF080413C
:1014A000484607F065FE834607F0AEFDCDE918011A
:1014B00006F0BAFCCDE91601DDE91A2307F068F958
:1014C000CDE91401DDE91E2307F062F9CDE912012F
:1014D0004FF08041404607F04BFE834607F094FDF5
:1014E000CDE9100106F052FCCDE90E014FF080412C
:1014F000504607F03DFE834607F086FDCDE90C011E
:1015000006F092FCCDE90A014FF08041484607F011
:101510002FFE834607F078FDCDE9080106F036FC82
:10152000CDE90601DDE90A2307F032F9CDE904012E
:10153000DDE90E2307F02CF9CDE90201DDE91223E4
:1015400006F036FDCDE9000106F0E8FC40490860F0
:101550004FF08041404607F00BFE834607F054FDF4
:10156000CDE9200106F012FCCDE91E014FF08041CB
:10157000504607F0FDFD834607F046FDCDE91C010E
:1015800006F052FCCDE91A014FF08041484607F0C1
:10159000EFFD834607F038FDCDE9180106F044FC65
:1015A000CDE91601DDE91A2307F0F2F8CDE91401BF
:1015B000DDE91E2307F0ECF8CDE912014FF0804180
:1015C000404607F0D5FD834607F01EFDCDE910012A
:1015D00006F02AFCCDE90E014FF08041504607F09D
:1015E000C7FD834607F010FDCDE90C0106F0CEFBE8
:1015F000CDE90A014FF08041484607F0B9FD834626
:1016000007F002FDCDE9080106F0C0FBCDE90601B7
:10161000DDE90A2307F0BCF8CDE90401DDE90E237A
:1016200007F0B6F8CDE90201DDE9122307F052FB1D
:10163000CDE9000106F072FC0649086023B0BDE860
:10164000F08F0000600000203400002038000020EF
:101650003C000020400000202DE9FF4FC7B0FF48AC
:101660000168006807F058FF3490FD480168FB48A6
:10167000006807F051FF3390FA480168F7480068A6
:1016800007F04AFF3290F8480168F448006807F014
:1016900043FF3190F2480168006807F03DFF309049
:1016A000F0480168EE48006807F036FF2F90EE48DA
:1016B0000168EB48006807F02FFF2E90E9480168A9
:1016C000006807F029FF2D90E7480168E5480068A9
:1016D00007F022FF2C90E4480168006807F01CFF27
:1016E0002B90E2495A9808F001F8804607F062FE14
:1016F0002A90DF495B9807F0F9FF804607F05AFE11
:101700002990DC495C9807F0A7FC804607F052FE60
:101710002890D9495A9807F0E9FF5A90D7495B9821
:1017200007F0E4FF5B90D6495C9807F095FC5C906D
:10173000FFF7D1FAD34908700846007803280AD188
:101740004FF07E50C54908600020C5490860C54972
:101750000860C5490860499807F056FCCDE92601A4
:1017600005F086FC804606F0C5FFCDE92401C6A041
:101770000CC8249806F0D4FF02D20020C4490860A7
:101780005599084607F0C8FE23905499084607F07B
:10179000C3FE82464A99084607F0BEFE834651467C
:1017A00007F05AFC8146239907F056FC804607F063
:1017B0002BFCCDE9260106F087FBCDE9240106F0DC
:1017C000ADFB429042994A9807F0D2FC4A90429968
:1017D000549807F0CDFC54904299559807F0C8FCF6
:1017E000559032992E9807F081FF80464FF0804146
:1017F00007F092FE41902C99339807F02DFC80461B
:101800004FF0804107F088FE06463099349807F083
:101810006DFF81462D9907F069FF80462B9907F0EF
:101820001BFC40903146559807F076FE8046409963
:10183000549807F071FE8146414607F057FF3F90EC
:1018400040994A9807F068FE80464199559807F0FC
:1018500063FE8146414607F049FF3E904199549806
:1018600007F05AFE814631464A9807F055FE8046F9
:10187000494607F03BFF074686493F9807F04CFE74
:10188000804685480168404607F0E6FB82490860CB
:1018900080493E9807F040FE8046804801684046F7
:1018A00007F0DAFB7D4908607A49384607F034FED4
:1018B000804677480168404607F0CEFB74490860CF
:1018C00077483F9907F028FE8146479907F0C4FB07
:1018D000804671480168404607F0BEFB479070485B
:1018E0003E9907F019FE8146489907F0B5FB8046FE
:1018F0006A480168404607F0AFFB4890394668489F
:1019000007F00AFE8146499907F0A6FB8046604829
:101910000168404607F0A0FB499053484999006888
:1019200007F0FAFD27904F484899006807F0F4FD4A
:1019300025904B48006880F0004B5846479907F0C7
:10194000EBFD8246259907F0D1FE2690279907F0F6
:10195000CDFE8146569907F0DFFD80463F4801687D
:10196000404607F079FB4F4908603F4848990068B6
:1019700007F0D2FD27903B484999006807F0CCFD5D
:10198000834636480168479807F0C6FD59462690B9
:1019900007F062FB8246279907F0A8FE8146569918
:1019A00007F0BAFD80462E480168404607F054FB18
:1019B0003D4908602C480168479807F0ADFD279025
:1019C00027484999006807F0A7FD834623484899AE
:1019D000006807F0A1FD5946269007F087FE824671
:1019E000279907F039FB8146569907F095FD804607
:1019F0001C480168404607F02FFB2C490860194835
:101A00000168479807F088FD2790154848990068B5
:101A100007F082FD834611484999006807F07CFD74
:101A20005946269007F018FB8246279907F05EFE7C
:101A30008146569907F070FD80460B480168404684
:101A400007F00AFB1A490860164800680349086055
:101A5000154800680249086014482BE03400002053
:101A6000380000203C000020400000203887B442AD
:101A7000F32F20435396A3405BF3B442C422204388
:101A8000B003A74088000020684F9E73305FE43F9A
:101A90005C0000206F12033B54000020580000201F
:101AA0006666E63F44000020480000204C0000200D
:101AB000500000200068FF490860FF480068FF49A7
:101AC000086008460168006807F026FD2390F94881
:101AD0000168006807F020FD2290F948016800685D
:101AE00007F01AFD8346F7480168006807F014FD07
:101AF0005946219007F0B0FA8246229907F0ACFAD5
:101B00008146239907F0A8FA804607F07DFACDE9CF
:101B1000260106F0D9F9CDE9240106F0FFF942903B
:101B2000E8484299006807F023FBE6490860E4486A
:101B30004299006807F01CFBE1490860DD484299C2
:101B4000006807F015FBDB490860DC484299006833
:101B500007F00EFBD949086008460168006807F0E5
:101B6000DBFC2790D3480168006807F0D5FC26907D
:101B7000D3480168006807F0CFFC8246D14801686D
:101B8000006807F0C9FC8346514607F065FA8146B4
:101B9000269907F0ABFD8046279907F0A7FD3D90F9
:101BA000C6480168C748006807F0B6FC8146C148CE
:101BB0000168C348006807F0AFFC8246494607F059
:101BC0004BFA804607F020FACDE92601BEA00CC8EA
:101BD000269806F0DDFDCDE9240106F09FF93C9042
:101BE000B4480168B748006807F096FC8146B348DE
:101BF0000168B348006807F08FFC8246494607F049
:101C000075FD804607F000FACDE92601AEA00CC8AC
:101C1000269806F0BDFDCDE9240106F07FF93B9042
:101C2000A6480168A748006807F076FC8146A148ED
:101C30000168A348006807F06FFC8246494607F038
:101C400055FD804607F0E0F9CDE926019EA00CC8BD
:101C5000269806F09DFDCDE9240106F05FF93A9043
:101C600096480168006807F057FC27909148016882
:101C7000006807F051FC269091480168006807F061
:101C80004BFC82468F480168006807F045FC83469C
:101C9000514607F02BFD8146269907F0DDF9804675
:101CA000279907F023FD3990854801688548006829
:101CB00007F032FC8146814801687E48006807F0E1
:101CC0002BFC8246494607F0C7F9804607F09CF98D
:101CD000CDE926017CA00CC8269806F059FDCDE977
:101CE000240106F01BF938907248016875480068B5
:101CF00007F012FC8146714801687148006807F0DE
:101D00000BFC8246494607F0A7F9804607F07CF9AC
:101D1000CDE926016CA00CC8269806F039FDCDE966
:101D2000240106F0FBF837906548016865480068B3
:101D300007F0F2FB8146614801685E48006807F0E1
:101D4000EBFB8246494607F0D1FC804607F05CF980
:101D5000CDE926015CA00CC8269806F019FDCDE956
:101D6000240106F0DBF8369054480168006807F05B
:101D7000D3FB27904F480168006807F0CDFB269001
:101D80004F480168006807F0C7FB82464D4801686C
:101D9000006807F0C1FB8346514607F0A7FC814667
:101DA000269907F0A3FC8046279907F055F935904E
:101DB000359807F029F9CDE92601389807F024F97C
:101DC000CDE92401DDE9262305F024FFCDE9220138
:101DD00006F0A4F83E4908603B9807F015F9CDE9F4
:101DE000260105F0BDFCCDE9240181F00041CDE9DB
:101DF000220106F093F8374908600846006807F0AA
:101E000003F9CDE9260106F00FF8CDE924013048A9
:101E1000006807F0F9F8CDE9220105F0B7FFCDE938
:101E200020015C9807F0F0F8CDE91E01DDE92023E0
:101E300006F0AEFCCDE91C01DDE9242306F0A8FC88
:101E4000CDE91A012348006807F0DEF8CDE9180152
:101E500005F09CFFCDE916015B9807F0D5F8CDE9B8
:101E60001401DDE9162306F093FCCDE912011948AF
:101E7000006807F0C9F8CDE9100105F0D5FFCDE9FC
:101E80000E011348006807F0BFF8CDE90C0105F01A
:101E9000CBFFCDE90A015A9807F0B6F8CDE9080161
:101EA000DDE90A2306F074FCCDE90601DDE90E2325
:101EB00012E000003C000020500000204000002004
:101EC0003800002034000020000000000000004026
:101ED000740000207000002006F05AFCCDE90401D7
:101EE000DDE9122306F064F8CDE90201DDE91A23E9
:101EF00006F0F0FECDE9000106F010F84490FF482E
:101F0000006807F081F8CDE9260105F08DFFCDE9E5
:101F100024015C9807F078F8CDE92201DDE924235B
:101F200006F036FCCDE92001F448006807F06CF8B3
:101F3000CDE91E0105F02AFFCDE91C015A9807F0F2
:101F400063F8CDE91A01DDE91C2306F021FCCDE997
:101F50001801DDE9202306F02BF8CDE9160105F084
:101F6000DDFF4390439807F04FF8CDE926014498F0
:101F700007F04AF8CDE92401DDE9262305F04AFE01
:101F8000CDE9220105F0CAFFDD4908600846006876
:101F900007F03AF8CDE92601DAA00CC8269806F039
:101FA000F7FBCDE92401D9A00CC8249806F054F918
:101FB000CDE9220106F050FB00B2D6490880084660
:101FC000B0F90000002805DA0846008800F5B47072
:101FD00000B20880C94800684590CF480468C848E6
:101FE00005684FF08041284607F0C2F8804607F0A8
:101FF0000BF8CDE9260105F017FFCDE924014FF0DC
:102000008041204607F0B4F8804606F0FDFFCDE998
:10201000220105F009FFCDE920014FF080414598EC
:1020200007F0A6F8804606F0EFFFCDE91E0105F0A7
:10203000FBFECDE91C01DDE9202306F0A9FBCDE97B
:102040001A01DDE9242306F0A3FBCDE918014FF0C6
:102050008041284607F08CF8804606F0D5FFCDE990
:10206000160105F093FECDE914014FF080412046A2
:1020700007F07EF8804606F0C7FFCDE9120105F0B3
:1020800085FECDE910014FF08041459807F070F8CA
:10209000804606F0B9FFCDE90E0105F077FECDE9E7
:1020A0000C01DDE9102306F073FBCDE90A01DDE93F
:1020B000142306F06DFBCDE90801DDE9182305F0D6
:1020C00077FFCDE9060105F029FF944908604FF03C
:1020D0008041284607F04CF8804606F095FFCDE990
:1020E000260105F0A1FECDE924014FF080412046F4
:1020F00007F03EF8804606F087FFCDE9220105F0A3
:1021000093FECDE920014FF08041459807F030F86B
:10211000804606F079FFCDE91E0105F037FECDE9D6
:102120001C01DDE9202306F033FBCDE91A01DDE9CE
:10213000242306F02DFBCDE918014FF080412846FD
:1021400007F016F8804606F05FFFCDE9160105F0AE
:102150001DFECDE914014FF08041204607F008F83C
:10216000804606F051FFCDE9120105F00FFECDE9E2
:1021700010014FF08041459806F0FAFF804606F0C6
:1021800043FFCDE90E0105F04FFECDE90C01DDE97D
:10219000102306F0FDFACDE90A01DDE9142306F06B
:1021A000F7FACDE90801DDE9182306F093FDCDE942
:1021B000060105F0B3FE5A4908604FF080412846F9
:1021C00006F0D6FF804606F01FFFCDE9260105F098
:1021D0002BFECDE924014FF08041204606F0C8FFD8
:1021E000804606F011FFCDE9220105F0CFFDCDE9D3
:1021F00020014FF08041459806F0BAFF804606F076
:1022000003FFCDE91E0105F00FFECDE91C01DDE95C
:10221000202306F0BDFACDE91A01DDE9242306F0FA
:10222000B7FACDE918014FF08041284606F0A0FF2B
:10223000804606F0E9FECDE9160105F0A7FDCDE9DF
:1022400014014FF08041204606F092FF804606F0D0
:10225000DBFECDE9120105F0E7FDCDE910014FF0FD
:102260008041459806F084FF804606F0CDFECDE91A
:102270000E0105F08BFDCDE90C01DDE9102306F020
:1022800087FACDE90A01DDE9142306F081FACDE9E8
:102290000801DDE9182305F08BFECDE9060105F004
:1022A0003DFE204908604FF08041284606F060FF5F
:1022B000804606F0A9FECDE9260105F067FDCDE9CF
:1022C00024014FF08041204606F052FF804606F080
:1022D0009BFECDE9220105F0A7FDCDE920014FF0DD
:1022E0008041459806F044FF804606F08DFECDE91A
:1022F0001E0105F099FDCDE91C0115E074000020D8
:102300007800002000000000008066404AD8124D8E
:10231000FB210940800000207000002034000020D4
:10232000380000203C000020DDE9202306F030FAD0
:10233000CDE91A01DDE9242306F02AFACDE91801D6
:102340004FF08041284606F013FF804606F05CFE01
:10235000CDE9160105F068FDCDE914014FF080418B
:10236000204606F005FF804606F04EFECDE912013C
:1023700005F00CFDCDE910014FF08041459806F0C5
:10238000F7FE804606F040FECDE90E0105F0FEFCAA
:10239000CDE90C01DDE9102306F0FAF9CDE90A01D7
:1023A000DDE9142306F0F4F9CDE90801DDE918238D
:1023B00006F090FCCDE9060105F0B0FDFF4908608C
:1023C0005998002866D0FEA004F040FDFD49FE4863
:1023D000006807F0A1F8814606F0ECFF8046014650
:1023E000FAA004F033FDF749FA48006807F094F8C2
:1023F000814606F0DFFF80460146F4A004F026FD8A
:10240000F049F548006807F087F8814606F0D2FFEA
:1024100080460146EDA004F019FDEA49E74800684E
:1024200007F07AF8814606F0C5FF80460146E7A02E
:1024300004F00CFDE9A02A9904F008FDE7A0299911
:1024400004F004FDE5A0289904F000FDE549479853
:1024500007F062F8814606F0ADFF80460146DFA036
:1024600004F0F4FCDF49489807F056F8814606F07E
:10247000A1FF80460146D9A004F0E8FCD94949985B
:1024800007F04AF8814606F095FF80460146D3A042
:1024900004F0DCFC4BB0BDE8F08F2DE9FF4F9BB0A2
:1024A0002D9C00201890179016900A900990089083
:1024B0001D9806F0A9FDCDE9060104F0D9FD80467E
:1024C00006F018F9CDE90401AFF644200CC80498D1
:1024D00006F026F902D20020C34908601E9806F0D3
:1024E00093FDCDE90601C1A00CC8069806F0F2FBE9
:1024F000CDE90401BFA00CC8049805F0ADFECDE9FC
:10250000020105F00BFD1E90289806F07DFDCDE937
:102510000601B6A00CC8069806F0DCFBCDE9040164
:10252000B4A00CC8049805F097FECDE9020105F0AF
:10253000F5FC2890299806F067FDCDE90601AFA0CB
:102540000CC8069805F034FDCDE90401ADA00CC817
:10255000049805F081FECDE9020105F0DFFC299029
:1025600000211E9806F0A8FF01D201200A90002148
:10257000289806F0A1FF01D2012009900021299896
:1025800006F09AFF01D20120089096491E9806F0A5
:10259000C3FF804606F00EFF0D909249289806F082
:1025A000BBFF804606F006FF0C908E49299806F086
:1025B000B3FF804606F0FEFE0B902999084606F010
:1025C000ABFF03902899084606F0A6FF82461E99A5
:1025D000084606F0A1FF8346514606F03DFD8146C0
:1025E000039906F039FD804606F00EFDCDE906019F
:1025F00005F06AFCCDE9040105F090FC1A901A99E7
:102600001E9806F0B5FD1E901A99289806F0B0FDA8
:1026100028901A99299806F0ABFD29906E48016818
:102620006948006806F078FF814664480168694897
:10263000006806F071FF8246494607F057F8804669
:102640004FF0804106F068FF05465C48016862482B
:10265000006806F061FF81465E4801685A480068DC
:1026600006F05AFF8246494606F0F6FC80464FF0D7
:10267000804106F051FF199050480168006806F04B
:102680004BFF079054480168006806F045FF06902C
:1026900050480168006806F03FFF82464A480168DA
:1026A000006806F039FF8346514607F01FF881465F
:1026B000069907F01BF88046079906F0CDFC064600
:1026C0001999299806F028FF80463146289806F087
:1026D00023FF8146414607F009F8189031461E98BD
:1026E00006F01AFF80462946299806F015FF814614
:1026F000414606F0FBFF17902946289806F00CFF8C
:10270000804619991E9806F007FF8146414606F05B
:10271000EDFF16903D49189806F0FEFE80463C48B5
:102720000168404606F098FC394908603749179817
:1027300006F0F2FE804637480168404606F08CFC01
:10274000344908603149169806F0E6FE804626486E
:102750000168404606F080FC234908602E4818991D
:1027600006F0DAFE81461B9906F076FC8046284882
:102770000168404606F070FC1B902748179906F048
:10278000CBFE81461C9906F067FC80462148016813
:10279000404606F061FC1C901F48169906F0BCFEEE
:1027A00081461D9906F058FC80460F480168404656
:1027B00006F052FC1D9001481D992FE040000020BA
:1027C0005857000000401C46340000202530366475
:1027D00000000000380000203C0000202530346458
:1027E000000000000000C8425C0000200000000063
:1027F0000000E03F3333333333B323409A99999940
:102800009999E53FCDCCCCCCCC0C24406F12033B46
:1028100054000020580000206666E63F006806F07D
:102820007BFE0690FF481C99006806F075FE059037
:10283000FD48006880F0004B58461B9906F06CFE7E
:102840008246059906F052FF8146069906F04EFF32
:1028500080462A9906F060FE0790F44801680798C0
:1028600006F0FAFBF2490860F2481C99006806F08D
:1028700053FE0790EB481D99006806F04DFE834615
:10288000EA4801681B9806F047FE5946069006F094
:10289000E3FB8246079906F029FF81462A9906F054
:1028A0003BFE8046E0480168404606F0D5FBE24921
:1028B0000860E04801681B9806F02EFE0790DA4891
:1028C0001D99006806F028FE8346D8481C990068C8
:1028D00006F022FE5946069006F008FF8246079948
:1028E00006F0BAFB81462A9906F016FE8046CD48CE
:1028F0000168404606F0B0FBD0490860C94801684D
:102900001B9806F009FE0790C7481C99006806F05E
:1029100003FE8346C5481D99006806F0FDFD594633
:10292000069006F099FB8246079906F0DFFE814685
:102930002A9906F0F1FD8046BE480168404606F03F
:102940008BFBBF490860BA480068B8490860BA48BC
:102950000068B5490860B9480068B2490860B848DD
:102960000068B449086008460168006806F0D4FDB4
:102970000390AC480168006806F0CEFD0290AA48BA
:102980000168006806F0C8FD8346A8480168006831
:1029900006F0C2FD5946019006F05EFB82460299A0
:1029A00006F05AFB8146039906F056FB804606F076
:1029B0002BFBCDE9060105F087FACDE9040105F00E
:1029C000ADFA1A9099481A99006806F0D1FB974918
:1029D000086095481A99006806F0CAFB9249086099
:1029E00090481A99006806F0C3FB8E490860914828
:1029F0001A99006806F0BCFB8E4908600846016819
:102A0000006806F089FD079086480168006806F0B6
:102A100083FD069084480168006806F07DFD8246CB
:102A200082480168006806F077FD8346514606F04B
:102A300013FB8146069906F059FE8046079906F079
:102A400055FE07467B4801687848006806F064FD3B
:102A50008146744801687448006806F05DFD82464E
:102A6000494606F0F9FA804606F0CEFACDE90601AD
:102A7000AFF6AC300CC8069805F08AFECDE904012B
:102A800005F04CFA1590674801686848006806F040
:102A900043FD8146674801686348006806F03CFDD5
:102AA0008246494606F022FE804606F0ADFACDE9A0
:102AB0000601AFF6EC300CC8069805F069FECDE9CA
:102AC000040105F02BFA14905A4801685748006831
:102AD00006F022FD8146534801685348006806F01D
:102AE0001BFD8246494606F001FE804606F08CFA40
:102AF000CDE90601AFF630400CC8069805F048FE57
:102B0000CDE9040105F00AFA13904A48016800680B
:102B100006F002FD079043480168006806F0FCFCDF
:102B2000069041480168006806F0F6FC82463F487E
:102B30000168006806F0F0FC8346514606F0D6FDB9
:102B40008146069906F088FA8046079906F0CEFD80
:102B50001290354801683548006806F0DDFC814672
:102B6000344801682F48006806F0D6FC8246494682
:102B700006F072FA804606F047FACDE90601AFF694
:102B8000B8400CC8069805F003FECDE9040105F035
:102B9000C5F91190234801682448006806F0BCFC80
:102BA0008146244801682048006806F0B5FC82464A
:102BB000494606F051FA804606F026FACDE90601AC
:102BC000AFF6FC400CC8069805F0E2FDCDE9040123
:102BD00005F0A4F91090144801681448006806F044
:102BE0009BFC8146134801680E48006806F094FC7F
:102BF0008246494606F07AFD804606F005FACDE9A0
:102C00000601AFF63C500CC8069805F0C1FDCDE9B1
:102C1000040105F083F90F9006480168006806F08A
:102C20007BFC0FE03C000020380000203400002036
:102C30004400002040000020480000204C000020FC
:102C4000500000200790FF480168006806F064FC0F
:102C50000690FD480168006806F05EFC8246FB486D
:102C60000168006806F058FC8346514606F03EFDB8
:102C70008146069906F03AFD8046079906F0ECF980
:102C80000E900E9806F0C0F9CDE90601119806F0F5
:102C9000BBF9CDE90401DDE9062304F0BBFFCDE972
:102CA000020105F03BF9EA490860149806F0ACF916
:102CB000CDE9060104F054FDCDE9040181F00041A5
:102CC000CDE9020105F02AF9E2490860384606F02C
:102CD0009BF9CDE90601159806F096F9CDE90401B6
:102CE000DDE9062304F096FFCDE9020105F016F9AF
:102CF000D94908600021D848006806F0DDFB10D2F1
:102D0000D548006806F080F9CDE90601D3A00CC8CB
:102D1000069805F04DF9CDE9040105F0FFF8CE491C
:102D20000860CB48006806F06FF9CDE90601AFF600
:102D300024200CC8069805F08FFACDE90401AFF6FF
:102D40003C200CC8049805F023FDCDE9020105F0F4
:102D500083FC00B2C3490880BE48006806F054F9FD
:102D6000CDE90601AFF65C200CC8069805F074FAB0
:102D7000CDE90401AFF674200CC8049805F008FDF5
:102D8000CDE9020105F068FC00B2B7490880B248FD
:102D9000006806F039F9CDE90601AFF690200CC8BD
:102DA000069805F059FACDE90401AFF6A8200CC841
:102DB000049805F0EDFCCDE9020105F04DFC00B2F0
:102DC000AA490880002C65D02E9805F093FCCDE927
:102DD0000601A7A00CC8069805F07CFFCDE9040108
:102DE00005F03AFC2E902F9805F084FCCDE9060101
:102DF000A1A00CC8069805F06DFFCDE9040105F00F
:102E00002BFC2F90309805F075FCCDE906019CA0B5
:102E10000CC8069805F0CCF8CDE9040105F01CFCBF
:102E20003090AFF2646004F011F89048B0F90010EF
:102E300095A004F00BF88B48B0F90010AFF2646075
:102E400004F004F88848B0F90010AFF2706003F0A5
:102E5000FDFFAFF278602E9903F0F8FFAFF28460C7
:102E60002F9903F0F3FFAFF28C60309903F0EEFF7F
:102E700087A0DDE908320A9903F0E8FF86A00D99E2
:102E800003F0E4FF84A00C9903F0E0FF82A00B990B
:102E900003F0DCFF1FB0BDE8F08F2DE9FF4F9BB0C2
:102EA00004460D46164669480168006806F034FB82
:102EB0001490654801686548006806F02DFB139082
:102EC000604801686148006806F026FB129074486B
:102ED00001685E48006806F01FFB11905A480168BF
:102EE000006806F019FB10905648016856480068C3
:102EF00006F012FB0F906A4801685348006806F01C
:102F00000BFB0E904F480168006806F005FB0D9022
:102F1000634801684B48006806F0FEFA0C90604870
:102F20000168006806F0F8FA0B905E492E9806F0EA
:102F3000DDFB804606F03EFA0A905B492F9806F0CA
:102F4000D5FB804606F036FA09905849309806F0CD
:102F500083F8804606F02EFA0890FDF7BCFE54492F
:102F600008700846007803280AD14FF07E50374990
:102F70000860002034490860324908604849086008
:102F8000304606F041F8CDE9060104F071F88046BC
:102F900005F0B0FBCDE9040146480CC8049805F0E3
:102FA000BFFB02D20020444908602999084606F078
:102FB000B3FA03902899084606F0AEFA82461E99A5
:102FC000084606F0A9FA8346514606F045F88146C0
:102FD000039906F041F8804606F016F8CDE906019F
:102FE00004F072FFCDE9040104F098FF1A901A99D9
:102FF0001E9806F0BDF81E901A99289806F0B8F8A9
:1030000028901A99299806F0B3F8299012990E98E9
:1030100006F06CFB80464FF0804106F07DFA0746D3
:103020000C99139806F018F880464FF0804106F08E
:1030300073FA19901099149806F058FB81460D996F
:103040003CE000003C00002038000020340000205C
:103050007400002070000020780000204AD8124D33
:10306000FB2119407E0000207C0000208000002011
:10307000B0726891ED844E402D211FF46C526B406C
:10308000C1CAA145B6B754402530336400000000E2
:1030900025642564256400002530356400000000A7
:1030A000400000205BF3BE42C4223043ECC0B94173
:1030B00088000020881A00085C00002006F016FB3B
:1030C00080460B9905F0C8FF18901999299806F0C9
:1030D00023FA80461899289806F01EFA8146414640
:1030E00006F004FB179018991E9806F015FA804612
:1030F0003946299806F010FA8146414606F0F6FA5C
:1031000016903946289806F007FA804619991E98B5
:1031100006F002FA8146414606F0E8FA1590FF49AA
:10312000179806F0F9F98046FD480168404605F019
:1031300093FFFB490860F949169806F0EDF98046BF
:10314000F8480168404605F087FFF6490860F349F2
:10315000159806F0E1F98046F3480168404605F00D
:103160007BFFF1490860F148179906F0D5F98146CF
:10317000214605F071FF8046E9480168404605F0A8
:103180006BFF0446E948169906F0C6F981462946C0
:1031900005F062FF8046E3480168404605F05CFFA9
:1031A0000546E248159906F0B7F98146314605F023
:1031B00053FF8046DC480168404605F04DFF064657
:1031C0003146DB48006806F0A7F929460790D94840
:1031D000006806F0A1F90690D748006880F000402A
:1031E0002146059006F098F98346069906F07EFA86
:1031F0008246079906F07AFA81462A9906F08CF9F8
:103200008046CE480168404605F026FFCC4908605C
:103210002946C748006806F07FF931460790C5483F
:10322000006806F079F98346C4480168204606F034
:1032300073F95946069005F00FFF8246079906F08C
:1032400055FA81462A9906F067F98046BA4801681E
:10325000404605F001FFBB490860B54801682046BB
:1032600006F05AF931460790B348006806F054F961
:1032700083462946B148006806F04EF95946069043
:1032800006F034FA8246079905F0E6FE81462A994F
:1032900006F042F98046A7480168404605F0DCFE8A
:1032A000A9490860A3480168204606F035F9294677
:1032B0000790A148006806F02FF9834631469F48E1
:1032C000006806F029F95946069005F0C5FE8246C9
:1032D000079906F00BFA81462A9906F01DF98046F7
:1032E00093480168404605F0B7FE98490860944845
:1032F000006892490860934800688F4908609248C6
:1033000000688C490860914800688949086008464F
:103310000168006806F000F90390864801680068BB
:1033200006F0FAF8029084480168006806F0F4F8A4
:10333000834682480168006806F0EEF8594601901D
:1033400005F08AFE8246029905F086FE81460399C1
:1033500005F082FE804605F057FECDE9060104F037
:10336000B3FDCDE9040104F0D9FD1A9073481A9910
:10337000006805F0FDFE714908606F481A99006801
:1033800005F0F6FE6C4908606A481A99006805F075
:10339000EFFE6849086066481A99006805F0E8FE83
:1033A000634908602D98002871D0AFF6EC3003F027
:1033B0004DFD67496148006806F0AEF8814605F0AA
:1033C000F9FF80460146AFF6FC3003F03FFD60494F
:1033D0005948006806F0A0F8814605F0EBFF8046EA
:1033E0000146AFF6184003F031FD594951480068D5
:1033F00006F092F8814605F0DDFF80460146AFF603
:10340000344003F023FD52494948006806F084F82F
:10341000814605F0CFFF80460146AFF6504003F0ED
:1034200015FDAFF648400A9903F010FDAFF6544081
:10343000099903F00BFDAFF65C40089903F006FD17
:103440004449204606F068F8814605F0B3FF8046FF
:103450000146AFF6784003F0F9FC3E49284606F0F5
:103460005BF8814605F0A6FF80460146AFF6944022
:1034700003F0ECFC3749304606F04EF8814605F083
:1034800099FF80460146AFF6AC4003F0DFFC1FB069
:10349000BDE8F08F2DE9F04704464FF07C512046FF
:1034A00006F03AF8814625462C462E4634462A48F0
:1034B000A0EB660635462946484606F02DF88246BA
:1034C000294606F029F880464FF07F5106F004F9AE
:1034D0000746294606F020F805462846BDE8F0874D
:1034E0002DE9FF4F99B02B9C2C9805F063FF0890B5
:1034F0002D9805F05FFF07902E9805F05BFF069072
:1035000000211C9805F026FF2BD10021269805F0FC
:1035100021FF26D10021279820E000006F12033BF5
:1035200054000020580000205C0000206666E63F42
:10353000400000203C000020380000203400002023
:1035400044000020480000204C00002050000020D3
:1035500000401C460000C842DF59375F05F0FAFE04
:103560007ED02799084605F0D7FF05902699084692
:1035700005F0D2FF83461C99084605F0CDFF594659
:10358000049005F069FD8246059905F065FD8146C8
:10359000FFF780FF179017991C9805F0BDFF1C904E
:1035A0001799269805F0B8FF26901799279805F0E7
:1035B000B3FF2790FF480168FF48006805F0ACFFA3
:1035C0008146FE480168FE48006805F0A5FF824676
:1035D000494606F08BF81690F8480168F5480068EF
:1035E00005F09AFF8146F6480168F348006805F047
:1035F00093FF8246494605F02FFD1590EF4801687C
:10360000006805F089FF8246EB480168006805F014
:1036100083FF83464FF07C5106F068F8814651469F
:1036200005F01AFD05461599279805F075FF8246A5
:103630002946269805F070FF8146514606F056F857
:10364000064629461C9805F067FF8146169927987B
:1036500005F062FF8246494606F048F8149000E003
:1036600090E01699269805F057FF814615991C9809
:1036700005F052FF8246494606F038F80746002119
:10368000D048006805F0F2FF57D24FF080402899EB
:1036900005F042FF82463146CA48006805F03CFF0B
:1036A0008346514605F038FF8146C74801684846C1
:1036B00005F0D2FCC44908604FF08040289905F01D
:1036C0002BFF8246BF481499006805F025FF83460A
:1036D000514605F021FF8146BC480168484605F087
:1036E000BBFCBA4908604FF08040289905F014FFF0
:1036F00082463946B348006805F00EFF83465146BE
:1037000005F00AFF8146B2480168484605F0A4FC6E
:10371000AF490860AC480168199805F09DFC199004
:10372000AA4801681A9805F097FC1A90A848016801
:103730001B9805F091FC1B9006E00020A249086050
:10374000A2490860A24908603146A248006805F015
:10375000E3FE8146199905F07FFC19909D48149964
:10376000006805F0D9FE81461A9905F075FC1A909B
:1037700039469848006805F0CFFE81461B9905F050
:103780006BFC1B902899199805F0C6FE1990289992
:103790001A9805F0C1FE1A9028991B9805F0BCFEF6
:1037A0001B908548006813908548D0F800808148B8
:1037B0000068129081481B99006805F0ADFE0490E6
:1037C0001A99129805F0A8FE88F0004B039058460D
:1037D000199905F0A1FE8246039905F087FF8146FD
:1037E000049905F083FF059073480168059805F07A
:1037F00033FC7149086071481A99006805F08CFE25
:1038000005901B99129805F087FE83461399199825
:1038100005F082FE5946049005F01EFC824605998B
:1038200005F064FF814666480168484605F014FCCF
:103830006349086061480168199805F06DFE0590BC
:1038400040461B9905F068FE83461A99139805F0C7
:1038500063FE5946049005F049FF8246059905F03C
:10386000FBFB814653480168484605F0F5FB51498A
:1038700008601299199805F04FFE059040461A9974
:1038800005F04AFE83461B99139805F045FE5946FC
:10389000049005F0E1FB8246059905F027FF81467B
:1038A00046480168484605F0D7FB44490860084689
:1038B0000168006805F030FE05903E480168006828
:1038C00005F02AFE04903E480168006805F024FED9
:1038D000039039480168006805F01EFE02900399C4
:1038E00005F0BAFB8346049905F0B6FB82460599BC
:1038F00005F0B2FB8146FFF7CDFD17902E481799D2
:10390000006805F009FE2C4908602D4817990068E9
:1039100005F002FE2A49086026481799006805F05C
:10392000FBFD2449086025481799006805F0F4FD5F
:103930002249086008460168006805F0EDFD059021
:103940001C480168006805F0E7FD04901C48016808
:10395000006805F0E1FD834617480168006805F03E
:10396000DBFD5946039005F077FB8246049905F08C
:10397000BDFE8146059905F0B9FE11900F4801681A
:103980000D48006805F0C8FD82460A4801680C48E9
:10399000006805F0C1FD8346514605F05DFB814698
:1039A00005F032FBCDE904010B480CC8049804F083
:1039B000EFFE13E03C000020340000204000002017
:1039C0003800002024000020280000202C000020C7
:1039D0003000002020000020C81E0008CDE90201B0
:1039E00004F09CFA1090FF480168FF48006805F059
:1039F00093FD8246FD480168FD48006805F08CFD96
:103A00008346514605F072FE814605F0FDFACDE988
:103A10000401F8480CC8049804F0BAFECDE902018C
:103A200004F07CFA0F90F1480168EF48006805F057
:103A300073FD8246EB480168ED48006805F06CFDB7
:103A40008346514605F052FE814605F0DDFACDE988
:103A50000401E8480CC8049804F09AFECDE902017C
:103A600004F05CFA0E90E1480168006805F054FD2E
:103A70000590DC480168006805F04EFD0490DC48C4
:103A80000168006805F048FD8346D7480168006872
:103A900005F042FD5946039005F028FE8246049940
:103AA00005F0DAFA8146059905F020FE0D90D04820
:103AB0000168CD48006805F02FFD8246CB480168BB
:103AC000C848006805F028FD8346514605F0C4FA51
:103AD000814605F099FACDE90401C6480CC804985E
:103AE00004F056FECDE9020104F018FA0C90BD482E
:103AF0000168BD48006805F00FFD8246BB480168BB
:103B0000BB48006805F008FD8346514605F0A4FA5D
:103B1000814605F079FACDE90401B6480CC804984D
:103B200004F036FECDE9020104F0F8F90B90B0483C
:103B30000168AD48006805F0EFFC8246AB480168BB
:103B4000A848006805F0E8FC8346514605F0CEFD24
:103B5000814605F059FACDE90401A6480CC804983D
:103B600004F016FECDE9020104F0D8F90A909F484E
:103B70000168006805F0D0FC05909A48016800686B
:103B800005F0CAFC04909A480168006805F0C4FC7E
:103B9000834695480168006805F0BEFC59460390CD
:103BA00005F0A4FD8246049905F0A0FD8146059923
:103BB00005F052FA0990099805F026FACDE90401BA
:103BC0000C9805F021FACDE90201DDE9042304F0A7
:103BD00021F8CDE9000104F0A1F9874908600F98A8
:103BE00005F012FACDE9040103F0BAFDCDE90201B6
:103BF00081F00041CDE9000104F090F97F490860AF
:103C0000119805F001FACDE90401109805F0FCF9CE
:103C1000CDE90201DDE9042303F0FCFFCDE9000159
:103C200004F07CF97649086000217548006805F0C9
:103C300043FC11D27248006805F0E6F9CDE90401B1
:103C4000AFF6E8300CC8049804F0B2F9CDE90201EF
:103C500004F064F96A4908606748006805F0D4F91F
:103C6000CDE9040167480CC8049804F0F5FACDE9E1
:103C70000201644808380CC8029804F089FDCDE9B7
:103C8000000104F0E9FC00B25F4908805B4800686D
:103C900005F0BAF9CDE904015A480CC8049804F0BB
:103CA000DBFACDE90201574808380CC8029804F045
:103CB0006FFDCDE9000104F0CFFC00B2534908804C
:103CC0004F48006805F0A0F9CDE904014D480CC843
:103CD000049804F0C1FACDE902014A4808380CC83A
:103CE000029804F055FDCDE9000104F0B5FC00B2E6
:103CF00047490880002C21D046A003F0A7F844488B
:103D0000B0F90010AFF6804003F0A0F83E48B0F9DB
:103D10000010414803F09AF83C48B0F900103E48C2
:103D200003F094F83C48089903F090F83A48079952
:103D300003F08CF83848069903F088F81DB0BDE808
:103D4000F08F2DE9FF4FADB03F9C409805F05CF936
:103D5000CDE90A01AFF6E8400CC80A9804F0BAFFB2
:103D6000CDE9080104F078FC0F90419805F04CF97A
:103D7000CDE90A01AFF600500CC80A9804F0AAFF7A
:103D8000CDE9080104F068FC0E90429805F03CF97A
:103D9000CDE90A01AFF618500CC80A9804F008F9EA
:103DA000CDE9080104F058FC0D900021409805F081
:103DB000D1FA7ED10021419805F0CCFA7CD10021C6
:103DC000429805F0C7FA77D1409805F01DF9CDE982
:103DD0000A01AFF664500CC80A9804F07BFFCDE9E5
:103DE00008011BE03C0000203400002040000020BF
:103DF00038000020C81E0008740000207000002059
:103E0000780000200C2300087E0000207C000020A9
:103E10008000002058570000DC27000804F07EF8DE
:103E20004090419805F0F0F8CDE90A01AFF6B8509E
:103E30000CC80A9804F04EFFCDE9080104F06EF8B2
:103E40004190429805F0E0F8CDE90A01AFF6D05074
:103E50000CC80A9804F0ACF8CDE9080104F05EF84B
:103E60004290429805F0A6FA099005F007FB0C90E5
:103E7000419805F09FFA099005F000FB0B904098DF
:103E800005F098FA099005F0F9FA0A90439BDDE9EC
:103E90000B1206AD0FC53CA807C802AB17C3DDE97E
:103EA0003A23CDE900232DA80FC8FFF719FB31B045
:103EB00000E001E0BDE8F08F0021309805F04AFAFB
:103EC00009D100213A9805F045FA04D100213B9828
:103ED00005F040FA7ED0409805F096F8CDE90A0149
:103EE000AFF674600CC80A9804F0F4FECDE908013E
:103EF00004F014F84090419805F086F8CDE90A01E5
:103F0000AFF68C600CC80A9804F0E4FECDE9080115
:103F100004F004F84190429805F076F8CDE90A01E2
:103F2000AFF6A4600CC80A9804F042F8CDE9080185
:103F300003F0F4FF42903B99084605F0EDFA0B9030
:103F40003A99084605F0E8FA09903099084605F0D4
:103F5000E3FA0890099905F07FF80A900B9905F0AB
:103F60007BF80C90FFF796FA2C902C99309805F07E
:103F7000D3FA30902C993A9805F0CEFA3A902C99D1
:103F80003B9805F0C9FA3B904299084605F0C4FAFF
:103F90000B904199084605F0BFFA099040990846F0
:103FA00005F0BAFA0890099905F056F80A900B99AD
:103FB00005F052F80C90FFF76DFA2C902C99409870
:103FC00005F0AAFA40902C99419805F0A5FA419085
:103FD0002C9900E029E2429805F09EFA4290FF48B1
:103FE0000168006805F098FA2B90FD480168FB48CD
:103FF000006805F091FA2A90FA480168F7480068CD
:1040000005F08AFA2990F8480168F448006805F03C
:1040100083FA2890F2480168006805F07DFA27903D
:10402000F0480168EE48006805F076FA2690EE4800
:104030000168EB48006805F06FFA2590E9480168CF
:10404000006805F069FA2490E7480168E5480068CF
:1040500005F062FA2390E4480168006805F05CFA14
:1040600022902999259804F0F7FF0990429905F0CC
:1040700053FA0B902899269805F038FB0790419940
:1040800005F04AFA09904FF07C50249905F02EFB78
:104090000690229905F02AFB0790409905F03CFA1A
:1040A0000890099904F0D8FF0A900B9904F0D4FF06
:1040B0004FF080410C9005F02FFA05462A9923987D
:1040C00005F014FB0990429905F026FA0B904FF089
:1040D0007C50279905F00AFB0690229905F006FB13
:1040E0000790419905F018FA09902899269804F04C
:1040F000B3FF0790409905F00FFA0890099904F072
:10410000ABFF0A900B9904F0A7FF4FF080410C9091
:1041100005F002FA06463146304605F0FDF929461B
:104120000690284605F0F8F90590069904F094FFEA
:10413000079004F069FFCDE90A0103F0C5FECDE95F
:10414000080103F0EBFE21904FF07C50279905F019
:10415000CDFA0890249905F0C9FA0990429905F022
:10416000DBF90B902A99239804F076FF0790419988
:1041700005F0D2F909902999259805F0B7FA07902A
:10418000409905F0C9F90890099904F065FF0A9073
:104190000B9904F061FF4FF080410C9005F0BCF9E1
:1041A00007462999259805F0A1FA209023992A9885
:1041B00004F052FF1F904FF07C512B9805F096FAB7
:1041C0000C90229904F048FF80462999259805F023
:1041D0008DFA39460A9005F09FF90C904FF07C500B
:1041E000249905F083FA0990229905F07FFA0A9044
:1041F000219905F091F90B900C9904F02DFF81465F
:1042000023992A9804F028FF39460A9005F084F98A
:104210000C902899269805F069FA0A90219905F0E2
:104220007BF90B900C9904F017FF82464FF07C50FD
:10423000279905F05BFA0990249905F057FA394659
:104240000A9005F069F90C902599299804F004FF6B
:104250000A90219905F060F90B900C9904F0FCFE8E
:104260001E905146429805F057F90A901E994198C0
:1042700005F052F909900A9905F038FA0C901F9947
:104280003B9805F049F941460A903A9805F044F9FF
:1042900009900A9905F02AFA0B900C9904F0DCFEBB
:1042A0001D901E99409805F037F949460A904298AA
:1042B00005F032F909900A9905F018FA41460C9078
:1042C000309805F029F90A9020993B9805F024F9D7
:1042D00009900A9905F00AFA0B900C9904F0BCFEBB
:1042E0001C904946419805F017F951460A904098AC
:1042F00005F012F909900A9905F0F8F90C90209947
:104300003A9805F009F90A901F99309805F004F9D8
:1043100009900A9905F0EAF90B900C9904F09CFEBB
:104320001B9000213148006805F0A0F945D24FF0FC
:1043300080403C9905F0F0F80B902C481D990068DE
:1043400005F0EAF80A900B9905F0E6F80C90284879
:1043500001680C9804F080FE254908604FF0804009
:104360003C9905F0D9F80B9020481C99006805F09D
:10437000D3F80A900B9905F0CFF80C901D4801680E
:104380000C9804F069FE1B4908604FF080403C998E
:1043900005F0C2F80B9015481B99006805F0BCF8B1
:1043A0000A900B9905F0B8F80C90134801680C9826
:1043B00004F052FE1049086006E000200C49086035
:1043C0000C4908600C4908600C481D99006805F00C
:1043D000A3F80C902D9904F03FFE11E0340000206A
:1043E000380000203C000020400000202400002075
:1043F000280000202C000020300000202000002099
:104400002D90FF481C99006805F086F80C902E99B5
:1044100004F022FE2E90FA481B99006805F07CF803
:104420000C902F9904F018FE2F903C992D9805F0D0
:1044300073F82D903C992E9805F06EF82E903C99CB
:104440002F9805F069F82F90EE4800681A90EE4812
:10445000D0F800B0ED4800681990ED482F99006839
:1044600005F05AF80B902E99199805F055F8099017
:104470008BF0004007902D9905F04EF808900999AF
:1044800005F034F90A900B9905F030F90C90DD48ED
:1044900001680C9804F0E0FDDA490860DC482E99C8
:1044A000006805F039F80B902F99199805F034F849
:1044B00009901A992D9805F02FF80890099904F0A1
:1044C000CBFD0A900B9905F011F90C90CE480168CC
:1044D0000C9804F0C1FDCC490860CD4801682D98C6
:1044E00005F01AF80B9058462F9905F015F8099029
:1044F0002E991A9805F010F80890099905F0F6F829
:104500000A900B9904F0A8FD0C90C04801680C9823
:1045100004F0A2FDBD49086019992D9804F0FCFF34
:104520000B9058462E9904F0F7FF09902F991A988E
:1045300004F0F2FF0890099904F08EFD0A900B999F
:1045400005F0D4F80C90B24801680C9804F084FD92
:10455000AF49086008460168006804F0DDFF0B9071
:10456000AA480168006804F0D7FF0990A6480168CE
:10457000006804F0D1FF0790A2480168006804F0C9
:10458000CBFF0690079904F067FD0890099904F0A5
:1045900063FD0A900B9904F05FFD0C90FEF77AFF23
:1045A0002C9098482C99006804F0B6FF9549086053
:1045B00095482C99006804F0AFFF93490860934830
:1045C0002C99006804F0A8FF9049086090482C9945
:1045D000006804F0A1FF8E49086008460168006881
:1045E00004F09AFF0C9089480168006804F094FF79
:1045F0000A9085480168006804F08EFF08908148A1
:104600000168006804F088FF0790089904F024FD11
:1046100009900A9905F06AF80B900C9905F066F874
:1046200018907B4801687748006804F075FF069091
:10463000764801687448006804F06EFF059006999A
:1046400004F00AFD079004F0DFFCCDE90A0171488F
:104650000CC80A9804F09CF8CDE9080103F05EFC50
:1046600017906A4801686748006804F055FF069093
:10467000674801686448006804F04EFF0590069999
:1046800005F034F8079004F0BFFCCDE90A01614859
:104690000CC80A9804F07CF8CDE9080103F03EFC50
:1046A00016905B4801685748006804F035FF069093
:1046B000564801685448006804F02EFF059006999A
:1046C00005F014F8079004F09FFCCDE90A01514869
:1046D0000CC80A9804F05CF8CDE9080103F01EFC50
:1046E00015904B480168006804F016FF0C9047488D
:1046F0000168006804F010FF0A90434801680068F0
:1047000004F00AFF08903F480168006804F004FFC5
:104710000790089904F0EAFF09900A9904F09CFCBC
:104720000B900C9904F0E2FF14903748016835486B
:10473000006804F0F1FE06903548016833480068CF
:1047400004F0EAFE0590069904F086FC079004F058
:104750005BFCCDE90A012F480CC80A9804F018F850
:10476000CDE9080103F0DAFB1390284801682548D9
:10477000006804F0D1FE06902548016822480068D0
:1047800004F0CAFE0590069904F066FC079004F058
:104790003BFCCDE90A011F480CC80A9803F0F8FF5A
:1047A000CDE9080103F0BAFB1290174801681548DB
:1047B000006804F0B1FE06901548016813480068CF
:1047C00004F0AAFE0590069904F090FF079004F00B
:1047D0001BFCCDE90A010F480CC80A9803F0D8FF6A
:1047E000CDE9080103F09AFB1190094801680068BF
:1047F00004F092FE0C900548016800680CE000008F
:104800002000002034000020380000203C00002060
:1048100040000020C81E000804F07EFE0A90FD48FB
:104820000168006804F078FE0890FB4801680068A1
:1048300004F072FE0790089904F058FF09900A9955
:1048400004F054FF0B900C9904F006FC10901098A3
:1048500004F0DAFBCDE90A01139804F0D5FBCDE9A9
:104860000801DDE90A2303F0D5F9CDE9060103F0DB
:1048700055FBEA490860169804F0C6FBCDE90A0129
:1048800002F06EFFCDE9080181F00041CDE906019B
:1048900003F044FBE2490860189804F0B5FBCDE949
:1048A0000A01179804F0B0FBCDE90801DDE90A23FD
:1048B00003F0B0F9CDE9060103F030FBD9490860F7
:1048C0000021D848006804F0F7FD10D2D5480068F0
:1048D00004F09AFBCDE90A01D3480CC80A9803F00A
:1048E00067FBCDE9080103F019FBCE490860CB480E
:1048F000006804F089FBCDE90A01CC480CC80A988D
:1049000003F0AAFCCDE90801C84808380CC808988B
:1049100003F03EFFCDE9060103F09EFE00B2C4495C
:104920000880BF48006804F06FFBCDE90A01BF486A
:104930000CC80A9803F090FCCDE90801BB48083880
:104940000CC8089803F024FFCDE9060103F084FEAB
:1049500000B2B8490880B348006804F055FBCDE9BF
:104960000A01B2480CC80A9803F076FCCDE90801A8
:10497000AE4808380CC8089803F00AFFCDE90601D4
:1049800003F06AFE00B2AC490880002C22D0AFF6DA
:104990007C3002F05BFAA848B0F90010A2482C3035
:1049A00002F054FAA248B0F90010A44802F04EFAFE
:1049B000A048B0F90010A14802F048FA9F480F99AA
:1049C00002F044FA9D480E9902F040FA9B480D9976
:1049D00002F03CFAFFF76BBA2DE9FF4FA9B03B9C00
:1049E0003C9804F0E7FC09903D9804F0E3FC089043
:1049F0003E9804F0DFFC079091482B99006804F082
:104A00008BFD81468F482A99006804F085FD824617
:104A10008048006880F000484046299904F07CFDF9
:104A20000746514604F062FE0646494604F05EFE23
:104A300005464FF07C5104F06FFD239080482A9981
:104A4000006804F069FD07467E482B99006804F071
:104A500063FD804670480168299804F05DFD814639
:104A6000414604F0F9FA0646394604F03FFE054691
:104A70004FF07C5104F050FD229071480168299854
:104A800004F04AFD074663482B99006804F044FD92
:104A9000804661482A99006804F03EFD81464146FF
:104AA00004F024FE0646394604F0D6FA05464FF0D7
:104AB0007C5104F031FD219062480168299804F08E
:104AC0002BFD074653482A99006804F025FD8046CF
:104AD00051482B99006804F01FFD8146414604F0BF
:104AE000BBFA0646394604F001FE05464FF07C51FC
:104AF00004F012FD209000212C9804F02BFC09D129
:104B00000021369804F026FC04D10021379804F0E7
:104B100021FC7DD03799084604F0FEFC0746369903
:104B2000084604F0F9FC80462C99084604F0F4FC91
:104B30008146414604F090FA0646394604F08CFA64
:104B40000546FEF7A7FC289028992C9804F0E4FC71
:104B50002C902899369804F0DFFC369028993798E5
:104B600004F0DAFC37902C4801684FF0804004F0E4
:104B7000D3FC1F90274801684FF0804004F0CCFC24
:104B80001E90304801684FF0804004F0C5FC1D9035
:104B90002B4801684FF0804004F0BEFC1C901E487A
:104BA00001684FF0814004F0B7FC1B901948016880
:104BB0004FF0814004F0B0FC1A90224801684FF099
:104BC000814004F0A9FC1990124801684FF082401E
:104BD00004F0A2FC18901B4801684FF0824004F0DA
:104BE0009BFC17900C480168006804F095FC169037
:104BF00008480168006804F08FFC159011480168AE
:104C0000006804F089FC14900D48016800681BE0FE
:104C100056E100003800002034000020740000201D
:104C200070000020780000205C3000080C23000891
:104C30007E0000207C00002080000020DC2700088F
:104C4000400000203C00002004F066FC13903699E0
:104C50001E9804F061FC074615991B9804F05CFC53
:104C600080462C991D9804F057FC814614991B9896
:104C700004F052FC8246494604F0EEF906464146ED
:104C800004F0EAF90546394604F030FD27903799DB
:104C90001A9804F041FC06901499189804F03CFC12
:104CA00005901599189804F037FC049036991F98D0
:104CB00004F032FC03904FF08140169904F02CFC74
:104CC0000290FF480168029804F026FC82462C9965
:104CD0001C9804F021FC029013991A9804F01CFC13
:104CE0000190029904F002FD8346514604F0B4F9A4
:104CF0008146039904F0FAFC80461A9904F0F6FC08
:104D00000746049904F0A8F90646059904F0A4F9A9
:104D10000546069904F0A0F926903799199804F0F1
:104D2000FBFB06901499179804F0F6FB0590159973
:104D3000179804F0F1FB049036991C9804F0ECFBF2
:104D400003901399199804F0E7FB02902C991F988F
:104D500004F0E2FB01904FF08140169904F0DCFB77
:104D60000090D8480168009804F0D6FB834601996A
:104D700004F072F98246029904F06EF981460399B3
:104D800004F0B4FC8046199904F0B0FC074604997D
:104D900004F062F90646059904F05EF905460699A5
:104DA00004F05AF9259036991D9804F0B5FB814618
:104DB0004FF08140149904F0AFFB8046C24801686F
:104DC000404604F0A9FB06462C991E9804F0A4FB6B
:104DD00082464FF08140159904F09EFB8346BA4805
:104DE0000168584604F098FB8046514604F07EFC6A
:104DF0000746314604F030F90546494604F076FC92
:104E000024902499084604F087FB8046259908469B
:104E100004F082FB81462699084604F07DFB824619
:104E20002799084604F078FB8346514604F014F9AC
:104E30000746494604F010F90646414604F00CF9CD
:104E40000546FEF727FB2890DDE9270104F064FB07
:104E500027902899269804F05FFB2690289925989A
:104E600004F05AFB25902899249804F055FB2490CF
:104E700096482799006804F04FFB0546239904F0F3
:104E80002BFC239091482699006804F045FB0546C9
:104E9000229904F021FC22908C482599006804F0A6
:104EA0003BFB0546219904F017FC21908748249983
:104EB000006804F031FB0546209904F00DFC2090B9
:104EC0004FF08040389904F027FB0646239904F000
:104ED00023FB05467E480168284604F0BDF87C495E
:104EE00008604FF08040389904F016FB064622997E
:104EF00004F012FB054672480168284604F0ACF83D
:104F00006F4908604FF08040389904F005FB064671
:104F1000219904F001FB05466A480168284604F01F
:104F20009BF8684908604FF08040389904F0F4FA23
:104F30000646209904F0F0FA0546634801682846C1
:104F400004F08AF86049086008460168006804F0C7
:104F5000E3FA80465B480168006804F0DDFA8146A8
:104F600057480168006804F0D7FA8246584801683B
:104F7000006804F0D1FA8346514604F06DF8074604
:104F8000494604F069F80646414604F065F80546CE
:104F9000FEF780FA28904E482899006804F0BCFA81
:104FA0004B49086046482899006804F0B5FA44491E
:104FB000086044482899006804F0AEFA4149086046
:104FC00041482899006804F0A7FA3F49086008465C
:104FD0000168006804F0A0FA07463A4801680068D2
:104FE00004F09AFA804636480168006804F094FAA2
:104FF000814637480168006804F08EFA82464946C7
:1050000004F02AF80646414604F070FB054639468E
:1050100004F06CFB12902C4801682D48006804F0E5
:105020007BFA0646274801682548006804F074FAB0
:105030000746314604F010F8054603F0E5FFCDE9D8
:10504000040124480CC8049803F0A2FBCDE9020136
:1050500002F064FF11901B4801681D48006804F0CD
:105060005BFA0646184801681548006804F054FACF
:105070000746314604F03AFB054603F0C5FFCDE98B
:10508000040114480CC8049803F082FBCDE9020126
:1050900002F044FF10900C4801680D48006804F0CD
:1050A0003BFA0646074801680548006804F034FAF0
:1050B0000746314604F01AFB054603F0A5FF0BE056
:1050C000380000203C000020400000201C00002090
:1050D00034000020C81E0008CDE90401FE480CC8B9
:1050E000049803F055FBCDE9020102F017FF0F9081
:1050F000FA480168006804F00FFA0746F8480168AA
:10510000006804F009FA8046F6480168006804F077
:1051100003FA8146F4480168006804F0FDF982460C
:10512000494604F0E3FA0646414603F095FF05467A
:10513000394604F0DBFA0E90EA480168EA48006854
:1051400004F0EAF90646E5480168E548006804F01D
:10515000E3F90746314603F07FFF054603F054FFAD
:10516000CDE90401DC480CC8049803F011FBCDE93B
:10517000020102F0D3FE0D90D9480168DA480068B8
:1051800004F0CAF90646D5480168D648006804F01C
:10519000C3F90746314603F05FFF054603F034FFCD
:1051A000CDE90401CC480CC8049803F0F1FACDE92C
:1051B000020102F0B3FE0C90CA480168CA480068B8
:1051C00004F0AAF90646C5480168C548006804F01D
:1051D000A3F90746314604F089FA054603F014FFA7
:1051E000CDE90401BC480CC8049803F0D1FACDE91C
:1051F000020102F093FE0B90B8480168006804F0C9
:105200008BF90746B6480168006804F085F98046C6
:10521000B4480168006804F07FF98146B24801682B
:10522000006804F079F98246494604F05FFA0546C1
:10523000414604F05BFA0646394603F00DFF0A903A
:105240000A9803F0E1FECDE904010D9803F0DCFEBD
:10525000CDE90201DDE9042302F0DCFCCDE9000127
:1052600002F05CFEA1490860109803F0CDFECDE984
:10527000040102F075FACDE9020181F00041CDE9A7
:10528000000102F04BFE9A490860129803F0BCFE40
:10529000CDE90401119803F0B7FECDE90201DDE983
:1052A000042302F0B7FCCDE9000102F037FE91497A
:1052B000086000218F48006804F0FEF810D28D4885
:1052C000006803F0A1FECDE904018B480CC80498E6
:1052D00002F06EFECDE9020102F020FE8549086071
:1052E0008248006803F090FECDE9040183480CC8B1
:1052F000049802F0B1FFCDE90201804808380CC8DB
:10530000029803F045FACDE9000103F0A5F900B2D7
:105310007B4908807648006803F076FECDE90401F9
:1053200076480CC8049802F097FFCDE90201734853
:1053300008380CC8029803F02BFACDE9000103F0FD
:105340008BF900B26F4908806A48006803F05CFE80
:10535000CDE9040169480CC8049802F07DFFCDE94D
:105360000201664808380CC8029803F011FACDE92A
:10537000000103F071F900B263490880002C21D0CC
:1053800062A001F063FD6048B0F900105A482C306B
:1053900001F05CFD5A48B0F900105D4801F056FD7F
:1053A0005848B0F900105A4801F050FD5848099982
:1053B00001F04CFD5648089901F048FD5448079902
:1053C00001F044FD2DB0BDE8F08F2DE9FF4FB7B0DF
:1053D000499C4A9803F018FECDE90C014648143068
:1053E0000CC80C9803F076FCCDE90A0103F034F9FF
:1053F00011904B9803F008FECDE90C013E481C309B
:105400000CC80C9803F066FCCDE90A0103F024F9FE
:1054100010904C9803F0F8FDCDE90C01364824308B
:105420000CC80C9802F0C4FDCDE90A0103F014F990
:105430000F9000214A9803F08DFF6BD100214B980B
:1054400003F088FF66D100214C9803F083FF61D1FF
:105450004A9803F0D9FDCDE90C01274814300CC857
:105460000C9803F037FCCDE90A0102F057FD4A9091
:105470004B9803F0C9FDCDE90C011F481C300CC846
:105480000C9803F027FCCDE90A0102F047FD4B9090
:105490004C9803F0B9FDCDE90C01174824300CC835
:1054A0000C9802F085FDCDE90A0102F037FD4C9021
:1054B0004AA80FC806AD0FC546A807C802AB17C358
:1054C000459B449ACDE9002337A80FC8FFF784FA1B
:1054D0003BB0BDE8F08F1DE0C81E00084000002072
:1054E0003C00002038000020340000207400002020
:1054F00070000020780000205C3000080C230008B9
:105500007E0000207C000020800000205857000012
:10551000DC270008FF483999006803F0FDFF0D9073
:10552000FD483899006803F0F7FF0B90FB480068CE
:1055300080F000400990379903F0EEFF0A900B9934
:1055400004F0D4F80C900D9904F0D0F84FF07C5191
:105550000E9003F0E1FF8046EE483899006803F0B2
:10556000DBFF0D90EC483999006803F0D5FF0B90F4
:10557000EB480168379803F0CFFF0A900B9903F0CE
:105580006BFD0C900D9904F0B1F84FF07C510E902A
:1055900003F0C2FF8146DF480168379803F0BCFF83
:1055A0000D90DE483999006803F0B6FF0B90DC4897
:1055B0003899006803F0B0FF0A900B9904F096F850
:1055C0000C900D9903F048FD4FF07C510E9003F0C4
:1055D000A3FF8246D0480168379803F09DFF0D90E5
:1055E000CE483899006803F097FF0B90CC48399962
:1055F000006803F091FF0A900B9903F02DFD0C90C9
:105600000D9904F073F84FF07C510E9003F084FF75
:10561000349000213A9803F09DFE09D1002144986E
:1056200003F098FE04D10021459803F093FE7ED04C
:105630004A9803F0E9FCCDE90C01BA480CC80C9873
:1056400003F048FBCDE90A0102F068FC4A904B9850
:1056500003F0DAFCCDE90C01B24808300CC80C9814
:1056600003F038FBCDE90A0102F058FC4B904C984E
:1056700003F0CAFCCDE90C01AA4810300CC80C9804
:1056800002F096FCCDE90A0102F048FC4C904599E5
:10569000084603F041FF0D904499084603F03CFF93
:1056A0000B903A99084603F037FF0A900B9903F0E4
:1056B000D3FC0C900D9903F0CFFC0E90FDF7EAFEA1
:1056C000369036993A9803F027FF3A9036994498E5
:1056D00003F022FF44903699459803F01DFF459052
:1056E0004C99084603F018FF0D904B99084603F0BB
:1056F00013FF0B904A99084603F00EFF0A900B998E
:1057000003F0AAFC0C900D9903F0A6FC0E90FDF797
:10571000C1FE369036994A9803F0FEFE4A903699BB
:105720004B9803F0F9FE4B9036994C9800E0FEE35D
:1057300003F0F2FE4C907A4801684FF0804003F08D
:10574000EBFE0E904A9903F0E7FE31907448016831
:105750004FF0804003F0E0FE0E904B9903F0DCFE2A
:1057600030906F4801684FF0804003F0D5FE0E90F6
:105770004C9903F0D1FE2F90684801684FF08040AB
:1057800003F0CAFE0E904A9903F0C6FE2E906448BC
:1057900001684FF0804003F0BFFE2A905F48016827
:1057A0004FF0804003F0B8FE29905B4801684FF04D
:1057B000804003F0B1FE2890564801684FF08040C9
:1057C00003F0AAFE2790564801684FF0804003F08E
:1057D000A3FE0E90504801680E9803F09DFE26909F
:1057E0004D4801684FF0804003F096FE0E90494806
:1057F00001680E9803F090FE259049480168006802
:1058000003F08AFE2490454801684548006803F08B
:1058100083FE2390404801684148006803F07CFE05
:1058200022903C4801683E48006803F075FE2190D4
:105830003A480168006803F06FFE2090364801681E
:105840003648006803F068FE1F903248016833480C
:10585000006803F061FE1E902F480168006803F0A5
:105860005BFE1D902B4801682B48006803F054FE36
:105870001C9028480168006803F04EFE1B901B999D
:105880004A9803F049FE0E901D994A9803F044FE91
:105890000C904C99299803F03FFE08901D48016830
:1058A000089803F039FE0A904B99299803F034FECA
:1058B000069019480168069803F02EFE089020997A
:1058C0004A9803F029FE0690134801682F9803F0C8
:1058D00023FE04900F480168309803F01DFE0290EB
:1058E00024994A9803F018FE0190029903F0FEFEF5
:1058F0000390049903F0B0FB0590069903F0ACFB0C
:105900000790089903F0A8FB09900A9903F0A4FBFB
:105910000B9009E0400000203C00002038000020EF
:1059200034000020703000080C9903F0DFFE0D9069
:105930000E9903F0DBFE33901B994B9803F0ECFDBE
:105940000E904C99289803F0E7FD0A90FF480168F3
:105950000A9803F0E1FD0C901D994B9803F0DCFDD3
:105960000A9020994B9803F0D7FD0890F8480168F9
:105970002E9803F0D1FD0690F64801682F9803F0A9
:10598000CBFD049024994B9803F0C6FD0290EF489C
:105990000168319803F0C0FD0190029903F05CFBAF
:1059A0000390049903F0A2FE0590069903F054FBBE
:1059B0000790089903F09AFE09900A9903F04CFBAE
:1059C0000B900C9903F048FB0D900E9903F08EFE9E
:1059D00032903299084603F09FFD089033990846AB
:1059E00003F09AFD0790089903F036FB099003F045
:1059F0000BFBCDE90C0102F067FACDE90A0102F0D8
:105A00008DFA83461B994C9803F086FD0E901D99E4
:105A10004C9803F081FD0C904B99289803F07CFD85
:105A20000890CA480168089803F076FD0A9020990A
:105A30004C9803F071FD0890C44801682E9803F05B
:105A40006BFD069024994C9803F066FD0490C148C4
:105A50000168309803F060FD0290319880F00040BA
:105A60000090BB480168009803F056FD0190029930
:105A700003F0F2FA0390049903F0EEFA0590069908
:105A800003F0EAFA0790089903F030FE09900A99AA
:105A900003F0E2FA0B900C9903F028FE0D900E999A
:105AA00003F0DAFA2D9059464FF0804003F034FDB0
:105AB0002C904FF080402D9903F02EFD2B904FF04D
:105AC0007C50209903F012FE06901D9903F00EFE03
:105AD00007902D9903F020FD09901E99229803F05C
